:020000040800F2
:100000000000022001680008091600080B1600080D
:100010000D1600080F160008111600080000000059
:1000200000000000000000000000000091630008D4
:1000300013160008000000003164000815160008BF
:1000400051680008516800085168000851680008AC
:10005000516800085168000851680008516800089C
:100060005168000851680008291600085168000806
:10007000516800085168000851680008516800087C
:10008000516800085168000851680008516800086C
:1000900051680008516800085168000833160008CC
:1000A000516800085168000851680008516800084C
:1000B000516800085168000851680008516800083C
:1000C000516800085168000851680008516800082C
:1000D000516800085168000851680008516800081C
:1000E0003D16000851680008516800085168000872
:1000F00051680008516800085168000851680008FC
:1001000051680008516800085168000851680008EB
:100110005168000851680008516800084916000835
:1001200051680008516800085168000851680008CB
:10013000516800080000000000000000516800083D
:1001400051680008516800085168000851680008AB
:10015000516800085168000851680008516800089B
:10016000516800085168000851680008516800088B
:10017000516800085168000851680008000000003C
:1001800000000000516800080000000000000000AE
:1001900051680008000000000000000051680008DD
:1001A000000000000000000000000000516800088E
:1001B000516800085168000851680008516800083B
:0401C000516800087A
:1001D00010B5054C237833B9044B13B10448AFF381
:1001E00000800123237010BDA00200200000000049
:1001F0005C89000808B5034B1BB103490348AFF302
:10020000008008BD00000000A40200205C890008F6
:1002100081F0004102E000BF83F0004330B54FEAB7
:1002200041044FEA430594EA050F08BF90EA020F24
:100230001FBF54EA000C55EA020C7FEA645C7FEAB7
:10024000655C00F0E2804FEA5454D4EB5555B8BFDA
:100250006D420CDD2C4480EA020281EA030382EA4B
:10026000000083EA010180EA020281EA0303362DDD
:1002700088BF30BD11F0004F4FEA01314FF4801CB0
:100280004CEA113102D0404261EB410113F0004FC2
:100290004FEA03334CEA133302D0524263EB430379
:1002A00094EA050F00F0A780A4F10104D5F1200E17
:1002B0000DDB02FA0EFC22FA05F2801841F1000172
:1002C00003FA0EF2801843FA05F359410EE0A5F146
:1002D00020050EF1200E012A03FA0EFC28BF4CF077
:1002E000020C43FA05F3C01851EBE37101F000452D
:1002F00007D54FF0000EDCF1000C7EEB00006EEB3A
:100300000101B1F5801F1BD3B1F5001F0CD34908C3
:100310005FEA30004FEA3C0C04F101044FEA44521A
:1003200012F5800F80F09A80BCF1004F08BF5FEAA1
:10033000500C50F1000041EB045141EA050130BD81
:100340005FEA4C0C404141EB010111F4801FA4F124
:100350000104E9D191F0000F04BF01460020B1FA79
:1003600081F308BF2033A3F10B03B3F120020CDAB1
:100370000C3208DD02F1140CC2F10C0201FA0CF08F
:1003800021FA02F10CE002F11402D8BFC2F1200CF4
:1003900001FA02F120FA0CFCDCBF41EA0C019040AA
:1003A000E41AA2BF01EB0451294330BD6FEA0404F3
:1003B0001F3C1CDA0C340EDC04F11404C4F12002DE
:1003C00020FA04F001FA02F340EA030021FA04F3F0
:1003D00045EA030130BDC4F10C04C4F1200220FA47
:1003E00002F001FA04F340EA0300294630BD21FA85
:1003F00004F0294630BD94F0000F83F4801306BF4B
:1004000081F480110134013D4EE77FEA645C18BF3E
:100410007FEA655C29D094EA050F08BF90EA020FD5
:1004200005D054EA000C04BF1946104630BD91EACD
:10043000030F1EBF0021002030BD5FEA545C05D1D0
:100440004000494128BF41F0004130BD14F580040F
:100450003CBF01F5801130BD01F0004545F0FE4183
:1004600041F470014FF0000030BD7FEA645C1ABFB8
:10047000194610467FEA655C1CBF0B46024650EAEF
:10048000013406BF52EA033591EA030F41F400211B
:1004900030BD00BF90F0000F04BF0021704730B5A1
:1004A0004FF4806404F132044FF000054FF0000176
:1004B00050E700BF90F0000F04BF0021704730B537
:1004C0004FF4806404F1320410F0004548BF40420C
:1004D0004FF000013EE700BF42004FEAE2014FEA61
:1004E00031014FEA02701FBF12F07F4393F07F4F3C
:1004F00081F06051704732F07F4208BF704793F03F
:100500007F4F04BF41F40021704730B54FF4607451
:1005100001F0004521F000411CE700BF50EA010254
:1005200008BF704730B54FF000050AE050EA0102FD
:1005300008BF704730B511F0004502D5404261EB6D
:1005400041014FF4806404F132045FEA915C3FF4AE
:10055000D8AE4FF003025FEADC0C18BF03325FEA4B
:10056000DC0C18BF033202EBDC02C2F1200300FAFC
:1005700003FC20FA02F001FA03FE40EA0E0021FA21
:1005800002F11444BDE600BF53B94AB9002908BFBF
:1005900000281CBF4FF0FF314FF0FF3000F072B960
:1005A000ADF1080C6DE904CE00F006F8DDF804E0CA
:1005B000DDE9022304B070472DE9F047089E0446A8
:1005C0008846002B4BD18A42154667D9B2FA82F28F
:1005D0004AB1C2F1200701FA02F320FA07F7954069
:1005E00047EA030894404FEA154E230CB8FBFEF788
:1005F0001FFA85FC0EFB178843EA084307FB0CF142
:10060000994209D9EB1807F1FF3080F01B8199421C
:1006100040F21881023F2B445B1AA4B2B3FBFEF0F8
:100620000EFB103344EA034400FB0CFCA44509D93B
:100630002C1900F1FF3380F00781A44540F20481BA
:1006400002382C4440EA0740A4EB0C0400271EB1FA
:10065000D4400023C6E900433946BDE8F0878B4209
:1006600009D9002E00F0EB800027C6E900013846CA
:100670003946BDE8F087B3FA83F7002F47D18B42A4
:1006800002D3824200F2FA80841A61EB0303012054
:100690009846002EE0D0C6E90048DDE702B9FFDE4B
:1006A000B2FA82F2002A40F08F80491B4FEA154EC1
:1006B0001FFA85F80127B1FBFEFC230C0EFB1C1171
:1006C00043EA014308FB0CF1994207D9EB180CF1FE
:1006D000FF3002D2994200F2CD808446591AA3B26B
:1006E000B1FBFEF00EFB101443EA044408FB00F8D3
:1006F000A04507D92C1900F1FF3302D2A04500F222
:10070000B6801846A4EB080440EA0C409FE7C7F106
:10071000200CBB4022FA0CFE4EEA030E01FA07F44D
:1007200020FA0CF521FA0CF34FEA1E482543B3FBDF
:10073000F8F92C0C08FB19331FFA8EFA44EA03432C
:1007400009FB0AF49C4202FA07F200FA07F10BD9FE
:100750001EEB030309F1FF3080F087809C4240F2DA
:100760008480A9F1020973441B1BADB2B3FBF8F0FE
:1007700008FB103345EA034400FB0AFAA24508D9F6
:100780001EEB040400F1FF336BD2A24569D9023895
:10079000744440EA0940A0FB0289A4EB0A044C45DA
:1007A000C2464B4654D351D0002E69D0B1EB0A0556
:1007B00064EB030404FA0CFCFD40FC404CEA050524
:1007C000C6E90054002747E7C2F1200320FA03F7E7
:1007D000954001FA02F021FA03F34FEA154E38432F
:1007E000010CB3FBFEF71FFA85F80EFB173341EA45
:1007F000034107FB08F38B4204FA02F407D9691896
:1008000007F1FF3C2FD28B422DD9023F2944CB1A4E
:1008100081B2B3FBFEF00EFB103341EA034100FB53
:1008200008F38B4207D9691800F1FF3C17D28B42BD
:1008300015D902382944C91A40EA07473BE7374629
:10084000304609E70746E7E61846FBE64145ABD2E6
:10085000B8EB020A69EB0E0201381346A4E76046C2
:10086000E9E7184695E76746D1E781467CE7023815
:100870002C4447E7ACF1020C2B442FE7384608E73D
:100880003746E9E6704700BF034613F8012B002AFC
:10089000FBD1181A0138704700000000000000006A
:1008A00001F0FF01102A2BDB10F0070F08D010F821
:1008B000013B013A8B422DD010F0070F42B3F6D125
:1008C000F0B441EA012141EA014122F007047FF03E
:1008D00000070023F0E80256083C85EA010586EA95
:1008E000010685FA47F5A3FA87F586FA47F6A5FAD1
:1008F00087F68EB9EED1F0BC01F0FF0102F00702DD
:1009000032B110F8013B013A83EA010313B1F8D187
:100910000020704701387047002D06BF3546033868
:10092000073815F0010F07D1013015F4807F02BFA1
:10093000013015F4C03F0130F0BC0138704700BFF2
:1009400070B54FF0FF0C4CF4E06C1CEA11541DBF65
:100950001CEA135594EA0C0F95EA0C0F00F0DEF830
:100960002C4481EA030621EA4C5123EA4C5350EA15
:10097000013518BF52EA033541F4801143F4801366
:1009800038D0A0FB02CE4FF00005E1FB02E506F0F7
:100990000042E0FB03E54FF00006E1FB03569CF04C
:1009A000000F18BF4EF0010EA4F1FF04B6F5007F52
:1009B00064F5407404D25FEA4E0E6D4146EB0606C4
:1009C00042EAC62141EA55514FEAC52040EA5E504D
:1009D0004FEACE2EB4F1FD0C88BFBCF5E06F1ED8F7
:1009E000BEF1004F08BF5FEA500E50F1000041EB2E
:1009F000045170BD06F0004646EA010140EA0200DB
:100A000081EA0301B4EB5C04C2BFD4EB0C0541EAFC
:100A1000045170BD41F480114FF0000E013C00F311
:100A2000AB8014F1360FDEBF002001F0004170BD35
:100A3000C4F10004203C35DA0C341BDC04F114044E
:100A4000C4F1200500FA05F320FA04F001FA05F2DA
:100A500040EA020001F0004221F0004110EBD370A7
:100A600021FA04F642EB06015EEA430E08BF20EAD3
:100A7000D37070BDC4F10C04C4F1200500FA04F376
:100A800020FA05F001FA04F240EA020001F0004108
:100A900010EBD37041F100015EEA430E08BF20EA7B
:100AA000D37070BDC4F1200500FA05F24EEA020EC3
:100AB00020FA04F301FA05F243EA020321FA04F0F2
:100AC00001F0004121FA04F220EA020000EBD370A9
:100AD0005EEA430E08BF20EAD37070BD94F0000FA9
:100AE0000FD101F00046400041EB010111F4801FDD
:100AF00008BF013CF7D041EA060195F0000F18BF8E
:100B0000704703F00046520043EB030313F4801FC9
:100B100008BF013DF7D043EA0603704794EA0C0F83
:100B20000CEA135518BF95EA0C0F0CD050EA410699
:100B300018BF52EA4306D1D181EA030101F0004116
:100B40004FF0000070BD50EA410606BF104619463E
:100B500052EA430619D094EA0C0F02D150EA01364A
:100B600013D195EA0C0F05D152EA03361CBF10468B
:100B700019460AD181EA030101F0004141F0FE412A
:100B800041F470014FF0000070BD41F0FE4141F4AE
:100B9000780170BD70B54FF0FF0C4CF4E06C1CEAAE
:100BA00011541DBF1CEA135594EA0C0F95EA0C0F63
:100BB00000F0A7F8A4EB050481EA030E52EA03351E
:100BC0004FEA013100F088804FEA03334FF080553F
:100BD00045EA131343EA12634FEA022245EA11156C
:100BE00045EA10654FEA00260EF000419D4208BF1D
:100BF000964244F1FD0404F5407402D25B084FEACA
:100C00003202B61A65EB03055B084FEA32024FF475
:100C100080104FF4002CB6EB020E75EB030E22BFD2
:100C2000B61A754640EA0C005B084FEA3202B6EB92
:100C3000020E75EB030E22BFB61A754640EA5C0041
:100C40005B084FEA3202B6EB020E75EB030E22BFD1
:100C5000B61A754640EA9C005B084FEA3202B6EBD2
:100C6000020E75EB030E22BFB61A754640EADC0091
:100C700055EA060E18D04FEA051545EA16754FEAF3
:100C800006164FEAC30343EA52734FEAC2025FEA11
:100C90001C1CC0D111F4801F0BD141EA00014FF0A0
:100CA00000004FF0004CB6E711F4801F04BF014371
:100CB0000020B4F1FD0C88BFBCF5E06F3FF6AFAE8D
:100CC000B5EB030C04BFB6EB020C5FEA500C50F11D
:100CD000000041EB045170BD0EF0004E4EEA1131A0
:100CE00014EB5C04C2BFD4EB0C0541EA045170BDA7
:100CF00041F480114FF0000E013C90E645EA060EEB
:100D00008DE60CEA135594EA0C0F08BF95EA0C0F18
:100D10003FF43BAF94EA0C0F0AD150EA01347FF460
:100D200034AF95EA0C0F7FF425AF104619462CE737
:100D300095EA0C0F06D152EA03353FF4FDAE10469A
:100D4000194622E750EA410618BF52EA43067FF4EB
:100D5000C5AE50EA41047FF40DAF52EA43057FF47B
:100D6000EBAE12E74FF0FF3C06E000BF4FF0010C86
:100D700002E000BF4FF0010C4DF804CD4FEA410CEA
:100D80007FEA6C5C4FEA430C18BF7FEA6C5C1BD0B7
:100D900001B050EA410C0CBF52EA430C91EA030F38
:100DA00002BF90EA020F0020704710F1000F91EA95
:100DB000030F58BF994208BF90422CBFD8176FEA63
:100DC000E37040F0010070474FEA410C7FEA6C5C31
:100DD00002D150EA013C07D14FEA430C7FEA6C5C38
:100DE000D6D152EA033CD3D05DF8040B704700BF64
:100DF0008446104662468C461946634600E000BFB2
:100E000001B5FFF7B7FF002848BF10F1000F01BD83
:100E10004DF808EDFFF7F4FF0CBF012000205DF84E
:100E200008FB00BF4DF808EDFFF7EAFF34BF0120D3
:100E300000205DF808FB00BF4DF808EDFFF7E0FF6C
:100E400094BF012000205DF808FB00BF4DF808EDBD
:100E5000FFF7CEFF94BF012000205DF808FB00BF24
:100E60004DF808EDFFF7C4FF34BF012000205DF806
:100E700008FB00BF4FEA410C7FEA6C5C02D150EAEC
:100E8000013C0AD14FEA430C7FEA6C5C02D152EA82
:100E9000033C02D14FF0000070474FF00100704753
:100EA0004FEA410212F5001215D211D56FF4787392
:100EB000B3EB625212D94FEAC12343F0004343EA35
:100EC000505311F0004F23FA02F018BF4042704710
:100ED0004FF00000704750EA013005D111F000409A
:100EE00008BF6FF0004070474FF00000704700BF30
:100EF0002DE9F04788B0002501951D4C236B43F088
:100F000002032363236B03F002030193019B4FF45D
:100F1000807303934FF0120ACDF810A04FF001092F
:100F2000CDF814904FF00308CDF8188004270797E8
:100F3000104E03A9304602F0D1FC4FF40073039326
:100F4000CDF810A0CDF81490CDF81880079703A91C
:100F5000304602F0C3FC0295236C43F40013236473
:100F6000236C03F400130293029B08B0BDE8F087E2
:100F7000003802400004024010B5084A136C23F404
:100F800000131364064C4FF48071204602F084FD78
:100F90004FF40071204602F07FFD10BD0038024082
:100FA000000402400B4B1B687BB1013B094A1360F4
:100FB0000BB10020704710B5074C2046FFF7DCFF4F
:100FC000204603F03AF910B910BD002070476FF0C9
:100FD0000700F9E7BC0200203043002010B584B0C0
:100FE0004FF4805402940193009201230A46014673
:100FF000084803F03BF910B9002004B010BD0548C3
:1010000003F053FB042802D06FF00300F5E76FF004
:101010006500F2E73043002010B584B04FF48054EF
:1010200002940193009201230A460146084803F006
:10103000D1F910B9002004B010BD054803F035FB0C
:10104000042802D06FF00300F5E76FF06500F2E7C7
:101050003043002008B502F0BDFB08BD08B50A4AC0
:1010600002600A4A426000228260C2604FF48041FE
:10107000016142618261C261026203F003F80346CA
:1010800000B10123184608BD00540040801A060034
:101090000E4B0F4A1A600F4A1368591C11600BB1AE
:1010A0000020704710B5094803F0FCFA08B1002091
:1010B00010BD064C2046FFF71BFF2046FFF7CEFF72
:1010C00008B90020F4E76FF00700F1E73043002093
:1010D00000540040BC020020034B036054330B60FB
:1010E00080231360704700BFC002002030B589B074
:1010F00000240394049405940694079400942D4BC3
:101100001A6B42F004021A631A6B02F00402009296
:10111000009A01941A6B42F001021A631A6B02F0F2
:1011200001020192019A02941A6B42F002021A63C0
:101130001B6B03F002030293029B1F4D22462021EA
:10114000284602F03EFD4FF40053039304940594A7
:1011500003A91A4802F0C2FB20230393012304933E
:101160000594069403A9284602F0B8FB4FF4866361
:101170000393134B0493059403A9124802F0AEFBAA
:10118000224621460A2002F051FB0A2002F082FB8F
:1011900022462146172002F049FB172002F07AFB75
:1011A00022462146282002F041FB282002F072FB53
:1011B00009B030BD00380240000002400008024083
:1011C000000011100004024008B50848084B0360F5
:1011D0004FF4E133436000238360C36003610C225A
:1011E00042618361C36104F080F808BD8843002038
:1011F0000010014008B50848084B03604FF4E13384
:10120000436000238360C36003610C2242618361F9
:10121000C36104F06AF808BDD043002000440040D8
:1012200030B583B00025009501950B4C0B4B236026
:1012300040F23F136360A56041F28733E360A5612C
:10124000204603F0B5FE009501956946204603F05F
:10125000C9FE03B030BD00BF1044002000140040A0
:1012600008B54FF40051064802F0A4FC02462021C4
:10127000044802F0A6FC642004F018F9F1E700BF6E
:10128000000802400000024008B54FF47A7004F0F4
:101290000DF9FAE708B50321002002F05FF90221F9
:1012A000012002F05BF90421022002F057F908BD89
:1012B00010B5AAB0044627AA022102F011FA98B983
:1012C000DDED277AF8EEE77ACDED247ADDED287AA8
:1012D000F8EEE77ACDED257ADDED297AF8EEE77ABA
:1012E000CDED267A002312E023461C4A642107A88C
:1012F00005F04AFF21E02AAA02EB830252ED066ABA
:101300009FED177AC6EE877A42ED067A0133022BFB
:10131000F1DD2698FFF7E0F8CDE904012598FFF705
:10132000DBF8CDE902012498FFF7D6F8CDE90001FA
:101330000C4A642107A805F027FF07A8FFF7A4FAC5
:101340000A2382B207A9084803F0FEFF4FF47A731C
:101350001A68239B1A602AB010BD00BFE0890008FC
:1013600000007A44F4890008D043002008B50268E0
:10137000054B9A4200D008BD044B1B78002BFAD0D5
:101380000020FFF795FFF6E70014004050440020CE
:1013900010B594B03422002107A805F090FA00247B
:1013A000029403940494059406940094164B1A6CCA
:1013B00042F080521A641B6C03F080530093009B30
:1013C0000194124A136823F4404343F480431360AA
:1013D000136803F440430193019B02230793012305
:1013E0000A9310230B930D9407A803F0C9FA0F2357
:1013F00002930394049405940694214602A803F0F2
:1014000057F914B010BD00BF003802400070004012
:1014100080B590B0FFF73EFF02F0B6F9FFF7B8FFD6
:10142000FFF764FEFFF7D0FEFFF7E4FEFFF7F8FEDC
:101430001F4C204603F0BCFD204603F083FC2368CC
:1014400000275F620E970F970EA804F038F8194B2B
:101450001860194C07AD26460FCE0FC596E8070059
:1014600085E80700394607A803F0EAFF134B186028
:101470006D461C340FCC0FC594E8070085E80700C3
:101480003946684603F0DCFF0D4B186003F0D3FFCC
:101490004FF400510B4802F08DFB024620210A4810
:1014A00002F08FFB4FF4FA7002F09AF9F0E700BFF8
:1014B00010440020C843002078890008844300209D
:1014C000CC430020000802400000024082B000210E
:1014D00000910B4B5A6C42F480425A645A6C02F4ED
:1014E00080420092009A01911A6C42F080521A6474
:1014F0001B6C03F080530193019B02B0704700BF47
:101500000038024002680E4B9A4200D0704700B586
:1015100083B00021019103F509331A6C42F02002D7
:101520001A641B6C03F020030193019B0A463720C9
:1015300002F07CF9372002F0ADF903B05DF804FB4E
:101540000014004000B58BB0002305930693079369
:10155000089309930368284A934205D0274A934287
:1015600026D00BB05DF804FB00210191244B5A6C8E
:1015700042F010025A645A6C02F010020192019A71
:1015800002911A6B42F001021A631B6B03F0010314
:101590000293029B4FF4C063059302230693032337
:1015A00008930723099305A9164802F097F9D8E78D
:1015B00000210391124B1A6C42F400321A641A6C27
:1015C00002F400320392039A04911A6B42F0010272
:1015D0001A631B6B03F001030493049B0C23059314
:1015E00002230693032308930723099305A90548BB
:1015F00002F074F9B5E700BF00100140004400405C
:1016000000380240000002407047FEE7FEE7FEE7B8
:10161000FEE7704708B502F0D1F804F0FDFD01289F
:1016200001D004F037FF08BD08B5102002F0D0FA51
:1016300008BD08B5202002F0CBFA08BD08B54FF46C
:10164000806002F0C5FA08BD08B5064B1B681B692F
:1016500013F0010F02D0044B01221A70014803F06D
:1016600086FB08BD104400205044002008B5034606
:101670000B4A126842B10A4A106803446A46934210
:1016800006D8074A136008BD054A06491160F2E70B
:1016900005F0E0F80C2303604FF0FF30F3E700BFE4
:1016A0001405002068440020054BD3F8882042F43C
:1016B0007002C3F888204FF000629A60704700BF44
:1016C00000ED00E001230B70002048708870C870A6
:1016D000486010238B60C86000230B61014A4A6197
:1016E0008B6170470000C8430020087048700123D8
:1016F0008B70C870486088603223CB6000230B6118
:101700004B61014B8B6170470000C8424FF07F5323
:101710000B600020704732230B60002070470020D0
:1017200070470000F7EE007AB4EEE70AF1EE10FA27
:1017300026D9F2EE047AB4EEE70AF1EE10FA24D9D3
:10174000F3EE097AB4EEE70AF1EE10FA1FD9DFEDF5
:10175000137AB4EEE70AF1EE10FA1AD9DFED107A37
:10176000B4EEE70AF1EE10FA15D9DFED0E7AB4EE19
:10177000E70AF1EE10FA01D9072302E0062300E0A0
:10178000012380F82A30002070470223F9E7032361
:10179000F7E70423F5E70523F3E700BF000048421D
:1017A0000000C8420000484310B584682CB1446969
:1017B00041F04001007BA04710BD446941F0800129
:1017C000007BA047F8E710B584682CB1046941F0AC
:1017D0004001007BA04710BD046941F08001007BFF
:1017E000A047F8E710B584682CB1446941F0400186
:1017F000007BA04710BD446941F08001007BA047F9
:10180000F8E710B584682CB1046941F04001007B11
:10181000A04710BD046941F08001007BA047F8E7B4
:1018200090F82930012B0DD010B5044690F82A10FD
:101830001C3000F0A3FC034638B9012284F82920AB
:10184000184610BD0023184670474FF0FF33F7E7E6
:1018500008B5F7EE007AB4EEE70AF1EE10FA24D9F3
:10186000F2EE047AB4EEE70AF1EE10FA25D9F3EEBF
:10187000097AB4EEE70AF1EE10FA20D9DFED157A15
:10188000B4EEE70AF1EE10FA1BD9DFED137AB4EEED
:10189000E70AF1EE10FA16D9DFED107AB4EEE70A96
:1018A000F1EE10FA11D8062100E001211C3000F001
:1018B00065FC034658B9184608BD0221F6E7032126
:1018C000F4E70421F2E70521F0E70721EEE74FF006
:1018D000FF33F0E7000048420000C84200004843E0
:1018E00008B590F82930012B02D0FFF71BFF08BD87
:1018F000FFF7AEFFFBE738B5054600F11C040121F8
:10190000204600F0CBFCB8B90021204600F090FD45
:10191000A8B9052385F82A300021204600F02EFCC6
:1019200080B90021204600F07BFC034668B9012203
:1019300085F82820184638BD4FF0FF33FAE74FF0FE
:10194000FF33F7E74FF0FF33F4E74FF0FF33F1E7F2
:1019500008B5022905DD04290BDD08290BDC02216D
:1019600000E000211C3000F05BFC034628B918465B
:1019700008BD0121F6E70321F4E74FF0FF33F6E756
:1019800008B51C3000F02AFD034608B9184608BD0A
:101990004FF0FF33FAE738B590F8293013B9002338
:1019A000184638BD044600F11C0500F12A012846FE
:1019B00000F000FC48B90021284600F0DFFB034698
:1019C00030B9002284F82920EAE74FF0FF33E7E737
:1019D0004FF0FF33E4E710B50446FFF7DCFF38B9FA
:1019E0000246002384F82A3084F82830104610BDBF
:1019F0004FF0FF32FAE7000030B583B00D4600F13A
:101A00001C040DF10701204600F090FB00285ED178
:101A10000DF10601204600F0CDFB0346002859D108
:101A20009DF80720022A0AD09DF80620092A57D8D7
:101A3000DFE802F02F34383B3E414447564A9DF8D8
:101A40000620092A49D8DFE802F005080C0F121514
:101A5000181B1E2100222A601DE04FF07E522A60D2
:101A600019E0214A2A6016E0204A2A6013E0204A41
:101A70002A6010E01F4A2A600DE01F4A2A600AE02F
:101A80001E4A2A6007E01E4A2A6004E01D4A2A60B6
:101A900001E000222A60184603B030BD4FF07E52AC
:101AA0002A60F8E7104A2A60F5E7104A2A60F2E750
:101AB0000F4A2A60EFE70F4A2A60ECE70E4A2A60D5
:101AC000E9E70E4A2A60E6E70F4A2A60E3E74FF0AB
:101AD000FF33E0E74FF0FF33DDE74FF0FF33DAE7A6
:101AE0004FF0FF33D7E700BF000020410000C8419E
:101AF000000048420000C842000048430000C843BC
:101B00000080CA440000A8450000A84410B582B077
:101B10000C460DF107011C3000F09EFBB0B90246E7
:101B20009DF80730032B14D8DFE803F002070A0DF5
:101B3000094B2360104602B010BD084B2360F9E743
:101B4000074B2360F6E7074B2360F3E74FF0FF32C4
:101B5000F0E74FF0FF32EDE748E17A3F9A99F93F1D
:101B60009A9979401F853B4110B582B00C460DF122
:101B700007011C3000F070FBB0B902469DF8073039
:101B8000032B14D8DFE803F002070A0D094B23608A
:101B9000104602B010BD084B2360F9E7074B2360E5
:101BA000F6E7074B2360F3E74FF0FF32F0E74FF023
:101BB000FF32EDE79A997940713DFA407B147A4102
:101BC0009A993B4210B582B00C460DF107011C30CA
:101BD00000F042FBB0B902469DF80730032B14D841
:101BE000DFE803F002070A0D094B2360104602B03C
:101BF00010BD084B2360F9E7074B2360F6E7074B5E
:101C00002360F3E74FF0FF32F0E74FF0FF32EDE7EC
:101C10007B147A417B14FA417B147A427B943B43D8
:101C200030B583B004460D460DF107011C3000F0BD
:101C30007DFA48BB9DF80730012B11D033B1022B40
:101C400018D04FF0FF33184603B030BD2946204668
:101C5000FFF75CFF03460028F5D04FF0FF33F2E7B3
:101C600029462046FFF780FF03460028EBD04FF0BF
:101C7000FF33E8E729462046FFF7A4FF0346002884
:101C8000E1D04FF0FF33DEE74FF0FF33DBE710B575
:101C900082B00C460DF107011C3000F0DDFAB0B93E
:101CA00002469DF80730032B14D8DFE803F0020743
:101CB0000A0D02232360104602B010BD04232360E6
:101CC000F9E708232360F6E710232360F3E74FF0DA
:101CD000FF32F0E74FF0FF32EDE770B584B00C460D
:101CE00000F11C060DF10701304600F01FFA38BB69
:101CF0009DF80730012B1ED023B1022B1DD04FF0D1
:101D0000FF3215E0102502A9304600F0E3FA024642
:101D1000C8B9BDF9083093FBF5F32380BDF90A304B
:101D200093FBF5F36380BDF90C3093FBF5F5A580CB
:101D3000104604B070BD4025E5E74FF48075E2E73A
:101D40004FF0FF32F4E74FF0FF32F1E730B585B0E6
:101D500005460C460023019302A9FFF7BEFF70BBA6
:101D600001A92846FFF75CFF034658BBBDF90820D0
:101D700007EE102AB8EEC77ADDED017A27EE277A52
:101D8000BDEEC77A84ED007ABDF90A2007EE102A6D
:101D9000B8EEC77A27EE277ABDEEC77A84ED017ACE
:101DA000BDF90C2007EE102AB8EEC77A67EE877AE5
:101DB000FDEEE77AC4ED027A184605B030BD4FF06B
:101DC000FF33F9E74FF0FF33F6E790F82930012BA6
:101DD0000CD010B5044600211C3000F082FA0346F6
:101DE00038B9012284F82920184610BD002318466E
:101DF00070474FF0FF33F7E790F8293013B900230D
:101E00001846704710B5044602211C3000F069FAEC
:101E1000034620B9002284F82920184610BD4FF04F
:101E2000FF33FAE710B50446FFF7E6FF28B903468B
:101E3000002284F82820184610BD4FF0FF33FAE73F
:101E400008B5F2EE047AB4EEE70AF1EE10FA0FD913
:101E5000F3EE047AB4EEE70AF1EE10FA10D9DFEDF2
:101E60000C7AB4EEE70AF1EE10FA0BD8022100E08A
:101E700000211C3000F051FA034628B9184608BD6D
:101E80000121F6E70321F4E74FF0FF33F6E700BF47
:101E90000000484238B5054600F11C0401212046E7
:101EA00000F079FAA0B90221204600F01AFA90B9A0
:101EB0000321204600F031FA80B90021204600F0CD
:101EC0009BFA034668B9012285F82820184638BDD8
:101ED0004FF0FF33FAE74FF0FF33F7E74FF0FF33F0
:101EE000F4E74FF0FF33F1E708B51C3000F07DFA5E
:101EF000034608B9184608BD4FF0FF33FAE7000063
:101F000010B582B00C460DF107011C3000F021FA2B
:101F1000B0B902469DF80730032B14D8DFE803F070
:101F200002070A0D094B2360104602B010BD084B92
:101F30002360F9E7074B2360F6E7074B2360F3E7DD
:101F40004FF0FF32F0E74FF0FF32EDE700002041A5
:101F50000000A041000048420000C84210B582B015
:101F60000C4669461C3000F032FA60B90346BDF9F0
:101F700000202280BDF902206280BDF90420A280E9
:101F8000184602B010BD4FF0FF33F9E770B584B0CA
:101F900006460C4602A91C3000F019FA68BB05463B
:101FA00001A93046FFF7B2FBBDF9083007EE103A41
:101FB000B8EEC77ADDED017A27EE277ABDEEC77A53
:101FC00084ED007ABDF90A3007EE103AB8EEC77A10
:101FD00027EE277ABDEEC77A84ED017ABDF90C3081
:101FE00007EE103AB8EEC77A67EE877AFDEEE77A29
:101FF000C4ED027A284604B070BD4FF0FF35F9E712
:1020000010B582B002AC04F8012D012322461C3029
:1020100000F087F8034610B9184602B010BD4FF023
:10202000FF33F9E700282CD010B504460A68026097
:10203000486860608868A060087B20730869206138
:10204000486960618969A161134921621349E161AD
:102050006462D2B190470346D0B9A268012A01D088
:10206000184610BD94F82820002AF9D10122232116
:102070002046FFF7C5FF03460028F1D04FF0FF339D
:10208000EEE74FF0FF33184670474FF0FF33E7E7B6
:102090004FF0FF33E4E700BFA9170008C717000897
:1020A00000282AD010B504460A68026048686060BB
:1020B0008868A060087B20730869206148696061B6
:1020C0008969A161124921621249E1616462C2B168
:1020D00090470346C0B9A26812B194F828200AB10B
:1020E000184610BD012104F11C0000F0BDF90346A3
:1020F0000028F5D04FF0FF33F2E74FF0FF331846DA
:1021000070474FF0FF33EBE74FF0FF33E8E700BFD6
:10211000E51700080318000810B544688068A04758
:1021200010BD10B504688068A04710BD30B583B0FD
:1021300005460C4601236A462021FFF7EDFF0346C2
:1021400060B19DF8002012F0080F0FD19DF8042017
:1021500012F0080F0FD10122227009E0012301AA19
:1021600023212846FFF7D8FF0346EAE70222227020
:10217000184603B030BD00222270F9E730B583B0B5
:1021800004460D46012301AA2021FFF7C5FF03469F
:1021900010B1184603B030BD9DF8043065F3071345
:1021A00002AA02F8043D012320212046FFF7B9FFCF
:1021B0000346EEE710B582B00C46012301AA2021A8
:1021C000FFF7AAFF9DF804301B09092B25D8DFE88B
:1021D00003F005090C0F1215181B1E210023237094
:1021E00002B010BD01232370FAE702232370F7E742
:1021F00003232370F4E704232370F1E705232370FE
:10220000EEE706232370EBE707232370E8E70823B4
:102210002370E5E709232370E2E700232370DFE75B
:1022200030B583B004460D46012301AA2321FFF7F0
:1022300073FF034610B1184603B030BD9DF804305B
:1022400065F3051302AA02F8043D01232321204669
:10225000FFF767FF0346EEE710B582B00C46012397
:1022600001AA2321FFF758FF9DF80430C3F301139F
:10227000032B10D8DFE803F00206090C00232370BB
:1022800002B010BD01232370FAE702232370F7E7A1
:1022900003232370F4E700232370F1E730B583B004
:1022A00004460D46012301AA2321FFF735FF03460B
:1022B00010B1184603B030BD9DF8043065F3C71364
:1022C00002AA02F8043D012323212046FFF729FF3B
:1022D0000346EEE708B506230A462821FFF71CFF50
:1022E00008BD30B583B004460D46012301AA602124
:1022F000FFF712FF034610B1184603B030BD9DF83A
:10230000043065F3010302AA02F8043D01236021B1
:102310002046FFF706FF0346EEE730B583B00446DC
:102320000D46012301AA6021FFF7F6FE034610B116
:10233000184603B030BD9DF8043065F3830302AA4C
:1023400002F8043D012360212046FFF7EAFE034620
:10235000EEE710B582B00C46012301AA6021FFF719
:10236000DBFE9DF80430C3F38103032B10D8DFE8B4
:1023700003F00206090C0023237002B010BD0123F4
:102380002370FAE702232370F7E703232370F4E7AF
:1023900000232370F1E730B583B004460D460123D6
:1023A00001AA6221FFF7B8FE034610B1184603B038
:1023B00030BD9DF8043065F3041302AA02F8043D11
:1023C000012362212046FFF7ACFE0346EEE708B585
:1023D00006230A466821FFF79FFE08BD08B50123C2
:1023E0000A460F21FFF798FE08BD08B501230A46EB
:1023F0004F21FFF791FE08BD30B583B004460D466E
:10240000012301AA6221FFF787FE034610B1184697
:1024100003B030BD9DF8043065F3410302AA02F811
:10242000043D012362212046FFF77BFE0346EEE7D1
:1024300030B583B004460D46012301AA2E21FFF7D3
:102440006BFE034610B1184603B030BD9DF8043052
:1024500065F3871302AA02F8043D01232E212046CA
:10246000FFF75FFE0346EEE730B583B004460D4646
:10247000012301AA6221FFF74FFE034610B118465F
:1024800003B030BD9DF8043065F3451302AA02F88D
:10249000043D012362212046FFF743FE0346EEE799
:1024A00001230B704B7000208870C8704FF4FA63E2
:1024B0004B6010238B60C860024B0B614B610023A3
:1024C0008B6170470020D045F2EE097AB4EEE70A3E
:1024D000F1EE10FA3BD9F3EE0A7AB4EEE70AF1EE28
:1024E00010FA39D9DFED237AB4EEE70AF1EE10FAEB
:1024F00034D9DFED217AB4EEE70AF1EE10FA2FD9E4
:10250000DFED1E7AB4EEE70AF1EE10FA2AD9DFED1C
:102510001C7AB4EEE70AF1EE10FA25D9DFED197A4C
:10252000B4EEE70AF1EE10FA20D9DFED177AB4EE37
:10253000E70AF1EE10FA1BD9DFED147AB4EEE70AE0
:10254000F1EE10FA01D90A2302E0092300E0012389
:1025500080F82B30002070470223F9E70323F7E7C8
:102560000423F5E70523F3E70623F1E70723EFE765
:102570000823EDE7000050420000D0420000504325
:102580000000D043004050440080CF44002050451C
:10259000F2EE097AB4EEE70AF1EE10FA3BD9F3EE67
:1025A0000A7AB4EEE70AF1EE10FA39D9DFED237AB0
:1025B000B4EEE70AF1EE10FA34D9DFED217AB4EE89
:1025C000E70AF1EE10FA2FD9DFED1E7AB4EEE70A32
:1025D000F1EE10FA2AD9DFED1C7AB4EEE70AF1EE3B
:1025E00010FA25D9DFED197AB4EEE70AF1EE10FA08
:1025F00020D9DFED177AB4EEE70AF1EE10FA1BD915
:10260000DFED147AB4EEE70AF1EE10FA01D90A23ED
:1026100002E0092300E0012380F82C3000207047FD
:102620000223F9E70323F7E70423F5E70523F3E79C
:102630000623F1E70723EFE70823EDE70000504208
:102640000000D042000050430000D04300405044FE
:102650000080CF440020504510B54469007BA0475E
:1026600010BD10B50469007BA04710BD90F829305B
:10267000012B0DD010B5044690F82B101C3000F043
:10268000A3FC034638B9012284F82920184610BD5E
:102690000023184670474FF0FF33F7E708B5F2EE16
:1026A000097AB4EEE70AF1EE10FA39D9F3EE0A7AB4
:1026B000B4EEE70AF1EE10FA3AD9DFED277AB4EE7C
:1026C000E70AF1EE10FA35D9DFED247AB4EEE70A25
:1026D000F1EE10FA30D9DFED227AB4EEE70AF1EE2E
:1026E00010FA2BD9DFED1F7AB4EEE70AF1EE10FAFB
:1026F00026D9DFED1D7AB4EEE70AF1EE10FA21D902
:10270000DFED1A7AB4EEE70AF1EE10FA1CD9DFED2C
:10271000187AB4EEE70AF1EE10FA17D8092100E0B2
:1027200001211C3000F050FC034688B9184608BD52
:102730000221F6E70321F4E70421F2E70521F0E79F
:102740000621EEE70721ECE70821EAE70A21E8E79E
:102750004FF0FF33EAE700BF000050420000D042D4
:10276000000050430000D043004050440080CF445C
:102770000020504508B590F82930012B02D0FFF712
:10278000A3FE08BDFFF78AFFFBE708B5022905DDB8
:1027900004290BDD08290BDC032100E000211C309B
:1027A00000F0D4FB034628B9184608BD0221F6E71D
:1027B0000121F4E74FF0FF33F6E790F82A30012BC0
:1027C0000DD010B5044690F82C101C3000F098FC89
:1027D000034638B9012284F82A20184610BD002388
:1027E000184670474FF0FF33F7E7000008B5F2EEE8
:1027F000097AB4EEE70AF1EE10FA39D9F3EE0A7A63
:10280000B4EEE70AF1EE10FA3AD9DFED277AB4EE2A
:10281000E70AF1EE10FA35D9DFED247AB4EEE70AD3
:10282000F1EE10FA30D9DFED227AB4EEE70AF1EEDC
:1028300010FA2BD9DFED1F7AB4EEE70AF1EE10FAA9
:1028400026D9DFED1D7AB4EEE70AF1EE10FA21D9B0
:10285000DFED1A7AB4EEE70AF1EE10FA1CD9DFEDDB
:10286000187AB4EEE70AF1EE10FA17D8092100E061
:1028700001211C3000F044FC034688B9184608BD0D
:102880000221F6E70321F4E70421F2E70521F0E74E
:102890000621EEE70721ECE70821EAE70A21E8E74D
:1028A0004FF0FF33EAE700BF000050420000D04283
:1028B000000050430000D043004050440080CF440B
:1028C0000020504508B590F82A30012B02D0FFF7C0
:1028D0005FFE08BDFFF78AFFFBE738B5054600F14C
:1028E0001C040121204600F092FC48BB0121204637
:1028F00000F05CFC38BB0021204600F0A4FC28BBA3
:10290000042385F82B300021204600F05DFB00BB3E
:102910000021204600F01AFBF0B9042385F82C3082
:102920000021204600F0ECFBC8B90621204600F04B
:10293000A4FB0346B0B9012285F82820184638BD0B
:102940004FF0FF33FAE74FF0FF33F7E74FF0FF3375
:10295000F4E74FF0FF33F1E74FF0FF33EEE74FF0CE
:10296000FF33EBE74FF0FF33E8E708B57D2909DDDA
:10297000FA290FDDB1F5FA7F0EDDB1F57A7F0DDCB6
:10298000042100E001211C3000F077FB034638B938
:10299000184608BD0021F6E70221F4E70621F2E718
:1029A0004FF0FF33F4E708B51C3000F029FC034674
:1029B00008B9184608BD4FF0FF33FAE738B590F86C
:1029C000293013B90023184638BD044600F11C0510
:1029D00000F12B01284600F013FB48B900212846DE
:1029E00000F0F2FA034630B9002284F82920EAE721
:1029F0004FF0FF33E7E74FF0FF33E4E710B582B065
:102A00000C460DF107011C3000F0FAFA002832D113
:102A100002469DF807300B2B30D8DFE803F0060E96
:102A20001114171A1D202326290B0023236010469A
:102A300002B010BD134B2360F9E7134B2360F6E798
:102A4000124B2360F3E7124B2360F0E7114B236036
:102A5000EDE7114B2360EAE7104B2360E7E7104BEB
:102A60002360E4E70F4B2360E1E70F4B2360DEE7D1
:102A70000E4B2360DBE74FF0FF32D8E74FF0FF3219
:102A8000D5E700BFCDCCCC3F000048410000D0418D
:102A9000000050420000D042000050430000D043EC
:102AA000004050440080CF44002050450020D045D5
:102AB00010B582B00C460DF107011C3000F062FA2F
:102AC000B0B902469DF80730032B14D8DFE803F0B5
:102AD000020D070A094B2360104602B010BD084BD7
:102AE0002360F9E7074B2360F6E7074B2360F3E722
:102AF0004FF0FF32F0E74FF0FF32EDE723DB793D97
:102B000023DBF93D23DB793E23DBF93E10B582B0B0
:102B10000C460DF107011C3000F034FAB0B9024642
:102B20009DF80730032B14D8DFE803F0020D070AE5
:102B300002232360104602B010BD04232360F9E78E
:102B400008232360F6E710232360F3E74FF0FF32FA
:102B5000F0E74FF0FF32EDE710B582B00C46694662
:102B60001C3000F046FB60B90346BDF9002022800E
:102B7000BDF902206280BDF90420A280184602B08F
:102B800010BD4FF0FF33F9E730B585B005460C4670
:102B90000023019302A91C3000F02BFB70BB01A99C
:102BA0002846FFF785FF034658BBBDF9082007EE0E
:102BB000102AB8EEC77ADDED017A27EE277ABDEE4E
:102BC000C77A84ED007ABDF90A2007EE102AB8EE24
:102BD000C77A27EE277ABDEEC77A84ED017ABDF970
:102BE0000C2007EE102AB8EEC77A67EE877AFDEE62
:102BF000E77AC4ED027A184605B030BD4FF0FF33D6
:102C0000F9E74FF0FF33F6E738B590F82A3013B9FB
:102C10000023184638BD044600F11C0500F12C01C4
:102C2000284600F089FA48B90021284600F068FAE1
:102C3000034630B9002284F82A20EAE74FF0FF3338
:102C4000E7E74FF0FF33E4E710B50446FFF7B6FEC1
:102C500068B92046FFF7D8FF024658B9002384F828
:102C60002B3084F82C3084F82830104610BD4FF0FB
:102C7000FF32FAE74FF0FF32F7E7000010B582B0FD
:102C80000C460DF107011C3000F056FA00282FD138
:102C900002469DF807300A2B2DD8DFE803F0060B1B
:102CA0000E1114171A1D202326000023236010463E
:102CB00002B010BD114B2360F9E7114B2360F6E71A
:102CC000104B2360F3E7104B2360F0E70F4B2360BA
:102CD000EDE70F4B2360EAE70E4B2360E7E70E4B6F
:102CE0002360E4E70D4B2360E1E70D4B2360DEE753
:102CF0004FF0FF32DBE74FF0FF32D8E700004841EA
:102D00000000D041000050420000D042000050437B
:102D10000000D043004050440080CF440020504584
:102D20000020D04510B582B00C460DF107011C30D3
:102D300000F0BFF9D8B902469DF80730062B19D824
:102D4000DFE803F009040C180F1812000B4B236086
:102D5000104602B010BD0A4B2360F9E7094B23600F
:102D6000F6E7094B2360F3E7084B2360F0E74FF0E9
:102D7000FF32EDE74FF0FF32EAE700BF00008C4082
:102D800000000C4100008C4100000C4200008C420D
:102D900010B582B00C460DF107011C3000F089F926
:102DA000F0B902469DF80730062B1CD8DFE803F087
:102DB00009040C1B101B14007D232360104602B075
:102DC00010BDFA232360F9E74FF4FA732360F5E7A7
:102DD0004FF47A732360F1E74FF4FA632360EDE771
:102DE0004FF0FF32EAE74FF0FF32E7E710B582B06D
:102DF0000C4669461C3000F0F5F960B90346BDF990
:102E000000202280BDF902206280BDF90420A2804A
:102E1000184602B010BD4FF0FF33F9E730B585B06A
:102E200005460C4602A91C3000F0DCF970BB01A974
:102E30002846FFF777FF034658BBBDF9082007EE89
:102E4000102AB8EEC77ADDED017A27EE277ABDEEBB
:102E5000C77A84ED007ABDF90A2007EE102AB8EE91
:102E6000C77A27EE277ABDEEC77A84ED017ABDF9DD
:102E70000C2007EE102AB8EEC77A67EE877AFDEECF
:102E8000E77AC4ED027A184605B030BD4FF0FF3343
:102E9000F9E74FF0FF33F6E710B582B002AC04F863
:102EA000012D012322461C3000F04BF8034610B9D7
:102EB000184602B010BD4FF0FF33F9E700282CD0C0
:102EC00010B504460A680260486860608868A060BF
:102ED000087B207308692061486960618969A16184
:102EE000134921621349E1616462D2B190470346FC
:102EF000D0B9A268022A01D0184610BD94F8282043
:102F0000002AF9D10C2212212046FFF7C5FF034603
:102F10000028F1D04FF0FF33EEE74FF0FF331846B3
:102F200070474FF0FF33E7E74FF0FF33E4E700BFB0
:102F3000592600086326000810B544688068A04739
:102F400010BD10B504688068A04710BD30B583B0CF
:102F500004460D46012301AA1021FFF7EDFF0346A9
:102F600010B1184603B030BD9DF8043065F38303FB
:102F700002AA02F8043D012310212046FFF7E1FFD9
:102F80000346EEE710B582B00C46012301AA1021DA
:102F9000FFF7D2FF9DF80430C3F38103032B10D851
:102FA000DFE803F00206090C0023237002B010BD15
:102FB00001232370FAE702232370F7E7032323702A
:102FC000F4E704232370F1E730B583B004460D46DF
:102FD000012301AA1021FFF7AFFF034610B11846E5
:102FE00003B030BD9DF8043065F3071302AA02F860
:102FF000043D012310212046FFF7A3FF0346EEE71F
:1030000010B582B00C46012301AA1021FFF794FFEE
:103010009DF804301B090B2B2CD8DFE803F0060ABF
:103020000D101316191C1F2225280023237002B02F
:1030300010BD01232370FAE702232370F7E703236F
:103040002370F4E704232370F1E705232370EEE7F0
:1030500006232370EBE707232370E8E70823237098
:10306000E5E709232370E2E70A232370DFE70B2358
:103070002370DCE70C232370D9E730B583B0044616
:103080000D46012301AA1121FFF756FF034610B197
:10309000184603B030BD9DF8043065F3430302AA1F
:1030A00002F8043D012311212046FFF74AFF0346A1
:1030B000EEE710B582B00C46012301AA1121FFF7FB
:1030C0003BFF9DF80430C3F34203062B15D8DFE81D
:1030D00003F004080B140E1411000023237002B037
:1030E00010BD01232370FAE702232370F7E70423BE
:1030F0002370F4E706232370F1E707232370EEE73C
:1031000030B583B004460D46012301AA1121FFF713
:1031100013FF034610B1184603B030BD9DF80430CC
:1031200065F3071302AA02F8043D0123112120468A
:10313000FFF707FF0346EEE710B582B00C46012308
:1031400001AA1121FFF7F8FE9DF804301B090A2B94
:1031500029D8DFE803F0060A0D101316191C1F22E8
:1031600025000023237002B010BD01232370FAE76D
:1031700002232370F7E703232370F4E7042323706B
:10318000F1E705232370EEE706232370EBE707231F
:103190002370E8E708232370E5E709232370E2E7BB
:1031A0000A232370DFE70B232370DCE730B583B0FD
:1031B00004460D46012301AA1221FFF7BDFE034676
:1031C00010B1184603B030BD9DF8043065F3861386
:1031D00002AA02F8043D012312212046FFF7B1FEA6
:1031E0000346EEE708B506230A462221FFF7A4FEB0
:1031F00008BD08B506230A462821FFF79DFE08BD35
:1032000008B501230A460F21FFF796FE08BD30B529
:1032100083B004460D46012301AA1221FFF78CFE5C
:10322000034610B1184603B030BD9DF8043065F375
:10323000820302AA02F8043D012312212046FFF76F
:1032400080FE0346EEE730B583B004460D46012309
:1032500001AA0A21FFF770FE034610B1184603B019
:1032600030BD9DF8043065F3020302AA02F8043D64
:1032700001230A212046FFF764FE0346EEE7000023
:1032800070B590B0054600230B93D7238DF83030EE
:10329000324B0993324B0A93324B0E93324B0D93C0
:1032A000324B0F9309A93248FFF708FE002848D196
:1032B0000DF123012E48FFF776FB0646002843D187
:1032C0009DF823306A2B42D1294C01A92046FFF7F3
:1032D000E7F89DF805209DF8043042EA43039DF885
:1032E000061043EA81032363224B1C60224BE363F5
:1032F00015F0010F08D0012A06D120461F4BA36408
:103300001D4B1B68984798B915F0020F12D09DF815
:103310000430012B0ED1164B194ADA64DB6B1B68A3
:10332000144A10689847064628B16FF0040605E075
:103330006FF0040616B915F0040F0BD1304610B02B
:1033400070BD6FF00606F9E76FF00606F6E76FF05E
:103350000606F3E76FF00406F0E700BF91100008DF
:10336000A50F000819100008DD0F0008551000080F
:103370001C05002054440020B40000206C000020F4
:1033800090000020F0B591B0064600230B93332344
:103390008DF830302C4B09932C4B0A932C4B0E9309
:1033A0002C4B0D932C4B0F9309A92C48FEF73AFE9A
:1033B00000283AD10DF123012848FEF7E1FA05462D
:1033C000002835D19DF82330332B34D1244C04F11F
:1033D0006C0701A93846FEF775F99DF805309DF890
:1033E000042043EA42039DF8061043EA8103636325
:1033F0001C4B5F601C4B236416F0020F08D0012A9F
:1034000006D11A4BA365184B1B683846984748B934
:1034100016F0010F12D115B916F0040F11D128467C
:1034200011B0F0BD6FF00405F5E76FF00605F6E7A3
:103430006FF00605F3E76FF00605F0E76FF004059F
:10344000EDE76FF00405EAE791100008A50F00080A
:1034500019100008DD0F000855100008880500202D
:103460001C050020544400205C000020380000208F
:10347000F0B591B0064600230B933D238DF8303014
:103480002C4B09932C4B0A932C4B0E932C4B0D93E6
:103490002C4B0F9309A92C48FEF702FE00283AD1C5
:1034A0000DF123012848FEF71FFD0546002835D100
:1034B0009DF82330402B34D1244C04F1980701A906
:1034C0003846FEF711F99DF805309DF8042043EACF
:1034D00042039DF8062043EA8203A3631C4B9F60CE
:1034E0001C4B636416F0040F08D0012A06D11A4B56
:1034F000A366184B1B683846984748B916F0020F68
:1035000012D115B916F0010F11D1284611B0F0BD36
:103510006FF00405F5E76FF00605F6E76FF00605B6
:10352000F3E76FF00605F0E76FF00405EDE76FF0E5
:103530000405EAE791100008A50F0008191000081B
:10354000DD0F000855100008B40500201C05002000
:103550005444002028000020040000202DE9F04100
:1035600088B006460F46012831D020B1022856D037
:103570006FF0010099E00846FFF782FE002840F056
:103580009780544B03EB8603DB6BDB6801A9524A3F
:1035900052F826009847002840F08D809DF80430AE
:1035A000012B0BD0B0469DF80530012B09D09DF8BA
:1035B0000630012B08D00025012459E04FF0020805
:1035C000F1E748F00108F2E748F00408F3E708469D
:1035D000FFF7D8FE002871D13E4B03EB8603DB6B6F
:1035E000DB6801A93C4A52F826009847002868D1B8
:1035F0009DF80430012B0CD04FF000089DF80530E9
:10360000012B09D09DF80630012BD4D148F00408D5
:10361000D1E74FF00208F1E748F00108F2E7084669
:10362000FFF726FF00284FD12A4B03EB8603DB6B05
:10363000DB6801A9284A52F826009847002846D19D
:103640009DF80430012B0CD04FF000089DF8053098
:10365000012B08D09DF80630012BACD148F00408AE
:10366000A9E7B046F2E748F00108F3E76400013546
:10367000022D19D834EA0703F8D134EA0803F5D14A
:10368000164B53F8242006EB46031A44114B03EB68
:1036900082039B6C1B68104A52F82600984700284A
:1036A000E4D06FF0040000E0002008B0BDE8F08135
:1036B0004FF0FF30F9E76FF00600F6E74FF0FF300C
:1036C000F3E76FF00600F0E74FF0FF30EDE76FF043
:1036D0000600EAE71C05002054440020CC890008BD
:1036E00002281FD810B50B46124C04EB8004216B46
:1036F00033EA01011AD111460F4A52F8232000EB98
:1037000040031A440B4B03EB82039B6CDB690B4AAF
:1037100052F820009847034608B9184610BD6FF0CC
:103720000403FAE76FF00103184670476FF00103D6
:10373000F3E700BF1C050020CC890008544400209A
:1037400010B504460E4B18784FF47A73B3FBF0F3C0
:103750000C4A1068B0FBF3F000F0AAF868B90F2C1F
:1037600001D901200AE0002221464FF0FF3000F08D
:103770005DF8034B5C60002000E0012010BD00BF3D
:10378000C40000200000002008B50B4B1A6842F46A
:1037900000721A601A6842F480621A601A6842F471
:1037A00080721A60032000F02FF80020FFF7C8FF96
:1037B000FDF78CFE002008BD003C0240034A116862
:1037C000034B1B780B441360704700BF604400201C
:1037D000C4000020014B1868704700BF60440020FF
:1037E00038B50446FFF7F6FF0546B4F1FF3F02D0B7
:1037F000044B1B781C44FFF7EDFF401BA042FAD39B
:1038000038BD00BFC4000020074AD36823F4E0633A
:103810001B041B0C000200F4E060184340F0BF6082
:1038200040F40030D060704700ED00E030B4174B3A
:10383000DB68C3F30223C3F10704042C28BF04246C
:103840001D1D062D18D9033B4FF0FF3505FA04F472
:1038500021EA0401994005FA03F322EA030319431C
:1038600000280BDB0901C9B200F1604000F561409E
:1038700080F8001330BC70470023E5E700F00F002C
:103880000901C9B2024B1954F4E700BF00ED00E092
:1038900014ED00E0002807DB00F01F0240090123BF
:1038A0009340024A42F82030704700BF00E100E038
:1038B0000138B0F1807F0AD2064B5860064AF021E9
:1038C00082F823100020986007221A6070470120B8
:1038D000704700BF10E000E000ED00E000230F2B78
:1038E00000F2D180F0B583B039E0062200E000227A
:1038F000AA403A430234644D45F82420634A1468D0
:10390000F24302EA04054F6817F4803F01D046EA0B
:1039100004055E4C2560646802EA04054F6817F4EC
:10392000003F01D046EA0405584C6560A46802EAED
:1039300004054F6817F4801F01D046EA0405534C74
:10394000A560E46822404D6815F4001F01D046EAE6
:1039500004024E4CE26001330F2B00F292800122F0
:103960009A400C6804EA0206B242F4D14C68651E23
:10397000012D03D9112C01D0122C12D185685F00C2
:103980000324BC4025EA0405CC68BC402C43846079
:10399000456825EA02054C68C4F300129A402A43A0
:1039A0004260C4685F000322BA40D24314408D686D
:1039B000BD402543C5604C68022C01D0122C13D1A8
:1039C000DD08083550F825E003F007044FEA840CC1
:1039D0000F2404FA0CF42EEA040E0C6904FA0CF419
:1039E00044EA0E0440F82540046822404C6804F084
:1039F0000304BC40224302604A6812F0805FAAD0F0
:103A000000220192224A546C44F480445464526C63
:103A100002F480420192019A9C08A51C1A4A52F8AD
:103A2000257003F0030295000F22AA4027EA02073F
:103A3000184A90423FF45BAF02F58062904216D084
:103A400002F58062904214D002F58062904212D05A
:103A500002F58062904210D002F5806290420ED052
:103A600002F5806290423FF440AF072240E7012216
:103A70003EE702223CE703223AE7042238E7052228
:103A800036E703B0F0BD704700380140003C01400C
:103A9000003802400000024000230F2B00F2828019
:103AA000F0B529E0062700E0002707FA05F5B54242
:103AB0005FD005685E000324B440E4432540056000
:103AC000DD08083550F8256003F007074FEA870C3A
:103AD0000F2707FA0CF726EA070640F82560C568A5
:103AE0002540C560456825EA0202426082681440AC
:103AF000846001330F2B54D801229A4002EA01045A
:103B0000A242F6D14FEA930E0EF10206264D55F869
:103B1000266003F00305AD004FF00F0C0CFA05FC16
:103B20000CEA0606214FB842BED007F58067B842BE
:103B300015D007F58067B84213D007F58067B84203
:103B400011D007F58067B8420FD007F58067B842FB
:103B50000DD007F58067B842A4D00727A5E7012755
:103B6000A3E70227A1E703279FE704279DE705278F
:103B70009BE70F4D2E68E44326402E606E6826407A
:103B80006E60AE682640AE60EE683440EC60064E73
:103B90000EF1020456F8245025EA0C0546F824508C
:103BA00087E7F0BD704700BF0038014000000240C9
:103BB000003C01400369194201D1002070470120F7
:103BC000704712B90904816170478161704770477D
:103BD00008B5054B5B69034200D108BD024B586133
:103BE000FFF7F5FFF9E700BF003C014003685A69A1
:103BF00012F4806F11D06FF480625A610023036366
:103C0000202280F83D2080F83E30026C42F0040211
:103C1000026480F83C300120704700207047F8B5FE
:103C200006460C4617461D4622E0FFF7D3FD069BCD
:103C3000C01AA84200D8DDB900233363202286F8D9
:103C40003D2086F83E30326C42F02002326486F825
:103C50003C3001201AE033685B6924EA03039BB21D
:103C6000B3FA83F35B099F420FD1B5F1FF3FDCD17B
:103C7000C4F30743012BEED033689B6924EA0303A6
:103C80009BB2B3FA83F35B09EDE70020F8BDF8B50A
:103C900004460D4616461F463CE01A6842F4007280
:103CA0001A6023686FF480625A6100232363202224
:103CB00084F83D2084F83E30226C42F004022264F5
:103CC00084F83C30012033E0FFF784FDC01BB04294
:103CD00000D8FEB900232363202284F83D2084F815
:103CE0003E30226C42F02002226484F83C300120F5
:103CF0001EE023685B6925EA03039BB2003318BF0B
:103D00000123A3B123685A6912F4806FC5D1B6F1BB
:103D1000FF3FD9D1C5F30743012BEAD023689B6944
:103D200025EA03039BB2003318BF0123E9E7002013
:103D3000F8BD70B504460D46164623685B6913F05E
:103D4000800F1CD12046FFF751FFD0B9B5F1FF3FDE
:103D5000F3D0FFF73FFD801BA84201D8002DECD126
:103D600000232363202284F83D2084F83E30226C17
:103D700042F02002226484F83C30012000E0002060
:103D800070BD0120FCE700002DE9F04184B004463D
:103D9000884616461F460B9D0268136843F48073DD
:103DA000136000950A9B00224FF00111FFF737FFC7
:103DB00060B123681B6813F4807F4FD04FF4007309
:103DC00023640323184604B0BDE8F081226808F09C
:103DD000FE0313612B460A9A21492046FFF757FF3D
:103DE00008B10123EEE70023039323685A69039285
:103DF0009B690393039B2A460A992046FFF799FF84
:103E0000034658B1236C042B01D00123DAE7226862
:103E1000136843F4007313600123D3E7012F0ED01E
:103E20002368320A1A612A460A992046FFF781FF61
:103E3000034678B1236C042B05D00123C2E7226826
:103E4000F6B21661BEE72268136843F4007313608C
:103E50000123B7E72268F6B21661B3E70323B1E79F
:103E6000020001002DE9F04184B004460E461746D9
:103E700098460B9D0268136843F4806313600268E0
:103E8000136843F48073136000950A9B00224FF07F
:103E90000111FFF7C4FE68B123681B6813F4807F2B
:103EA00000F089804FF4007323640323184604B0A4
:103EB000BDE8F081F6B2236806F0FE021A612B46D7
:103EC0000A9A3F492046FFF7E2FE08B10123EDE7D9
:103ED0000023039323685A6903929B690393039B0E
:103EE0002A460A992046FFF724FF58B1236C042B79
:103EF00001D00123DAE72268136843F400731360EA
:103F00000123D3E7B8F1010F0DD12368FFB21F6180
:103F10002A460A992046FFF70CFF20B3236C042B96
:103F20001AD00123C2E723683A0A1A612A460A997D
:103F30002046FFF7FEFE58B1236C042B01D001236D
:103F4000B4E72268136843F4007313600123ADE7FC
:103F50002368FFB21F61DBE72268136843F4007334
:103F600013600123A2E72268136843F4807313608F
:103F700000950A9B00224FF001112046FFF74FFEEB
:103F800048B123681B6813F4807F16D04FF4007388
:103F9000236403238AE7236846F001061E612B464B
:103FA0000A9A07492046FFF772FE034600283FF4AD
:103FB0007DAF01237AE7032378E7032376E700BF89
:103FC0000200010070B504460D46164623685B6981
:103FD00013F0040F1CD12046FFF708FED0B9B5F14D
:103FE000FF3FF3D0FFF7F6FB801BA84201D8002D5E
:103FF000ECD100232363202284F83D2084F83E3056
:10400000226C42F02002226484F83C30012000E05F
:10401000002070BD0120FCE770B505460C46164631
:104020002B685A6912F0400F29D15A6912F0100F0B
:1040300015D1FFF7CFFB801BA04201D8002CEFD198
:1040400000232B63202285F83D2085F83E302A6C22
:1040500042F020022A6485F83C30012070BD6FF0E8
:1040600010025A6100232B63202285F83D2085F839
:104070003E302A6C2A6485F83C300120EEE70020AF
:10408000ECE77047002800F0C880F8B5044690F8C7
:104090003D30002B75D0242384F83D30226813680E
:1040A00023F0010313602268136843F40043136094
:1040B0002268136823F40043136000F0AFFB6268CA
:1040C000584B9A4262D8584B98428CBF0023012328
:1040D000002B40F0A480554BA3FB00239B0C2168D0
:1040E0004A6822F03F021A434A6025682A6A22F091
:1040F0003F0266684B498E424ED8013313432B6210
:104100002568E96921F44F4121F0FF016368454AC0
:1041100093424BD801385B00B0FBF3F30133C3F398
:104120000B03042B38BF04230B43EB6121680B689E
:1041300023F0C003E269206A024313430B60216845
:104140008B6823F4034323F0FF032269E0680243F2
:1041500013438B602168CB6823F0FF036269A06979
:1041600002431343CB602268136843F001031360DA
:1041700000202064202384F83D30206384F83E0032
:10418000F8BD80F83C30FFF77CFF84E7284B98426D
:104190008CBF002301239BE74FF4967101FB03F3CF
:1041A0002449A1FB03139B090133A7E7A268BAB90D
:1041B000461E03EB4307B6FBF7F60136C6F30B06C4
:1041C000B6FA86F6760936BBC2B9013803EB43036B
:1041D000B0FBF3F30133C3F30B0242F40043A3E754
:1041E000461E03EB830707EB8707B6FBF7F601369E
:1041F000C6F30B06B6FA86F67609E4E7013803EB58
:10420000830303EB8303B0FBF3F20132C2F30B022F
:1042100042F4404388E7012386E7012070470120EC
:10422000AEE700BFA08601007F841E0083DE1B4333
:10423000FF083D00D34D62107047A8B110B5044689
:10424000242380F83D300268136823F001031360D3
:10425000FFF7F2FF0020206484F83D00206384F81B
:104260003E0084F83C0010BD012070472DE9F0416C
:1042700082B004460E4617469846FFF7ABFA94F80C
:104280003D30DBB2202B04D00223184602B0BDE83B
:10429000F08105460090192301224C492046FFF782
:1042A000BEFC002840F08B8094F83C30012B00F0DD
:1042B0008880012384F83C3023681A6812F0010FCB
:1042C00003D11A6842F001021A602268136823F4CD
:1042D00000631360212384F83D30402384F83E308E
:1042E00000232364089B6362BDF824306385638DDB
:1042F0002385374BE36201950A9B009343463A4678
:1043000031462046FFF740FD00285CD1238D002B6D
:1043100034D02A460A992046FFF70BFD10BB626A8B
:10432000236812781A61616A4B1C6362238D013B1A
:104330009BB22385628D013A92B2628522685069F0
:1043400010F0040FE2D0002BE0D04B781361636AC9
:1043500001336362238D013B2385638D013B9BB257
:104360006385D3E7236C042B01D001238DE72268FA
:10437000136843F400731360012386E72A460A9901
:104380002046FFF71FFE034658B1236C042B01D0D3
:1043900001237AE72268136843F400731360012352
:1043A00073E721680A6842F400720A60202284F8E8
:1043B0003D20002284F83E2084F83C2065E702235B
:1043C00063E7022361E701235FE700BF02001000FB
:1043D0000000FFFF2DE9F04186B004460E46174667
:1043E0009846FFF7F7F994F83D30DBB2202B04D064
:1043F0000226304606B0BDE8F0810546009019233C
:1044000001229E492046FFF70AFC002840F0348133
:1044100094F83C30012B00F03781012384F83C30C4
:1044200023681A6812F0010F03D11A6842F00102E2
:104430001A602268136823F400631360222384F84F
:104440003D30402384F83E30002323640C9B63629C
:10445000BDF834306385638D2385894BE362019514
:104460000E9B009343463A4631462046FFF7FAFC3E
:104470000646002840F00A81238D5BB90293236829
:104480005A6902929A690292029A1A6842F4007278
:104490001A6072E0012B0AD0022B1AD00023059378
:1044A00023685A6905929B690593059B65E022681C
:1044B000136823F4806313600023039323685A690D
:1044C00003929A690392039A1A6842F400721A607E
:1044D00053E02268136823F4806313602268136832
:1044E00043F4006313600023049323685A69049221
:1044F0009B690493049B40E02A460E992046FFF7EF
:104500008BFD002840F0C48023681A69636A1A7022
:10451000636A01336362238D013B2385638D013B15
:104520009BB2638529E000950E9B002255492046E9
:10453000FFF775FB002840F0AD802268136843F454
:104540000073136023681A69636A1A70626A531CE5
:104550006362238D013B2385638D013B9BB26385A1
:1045600023681B695370636A01336362238D013BC7
:104570002385638D013B9BB26385238D002B72D015
:10458000032B49D8012BB7D0022BCCD000950E9B22
:1045900000223C492046FFF742FB00287CD12268DC
:1045A000136823F48063136023681A69636A1A70BE
:1045B000636A01336362238D013B2385638D013B75
:1045C0009BB2638500950E9B00222E492046FFF783
:1045D00026FB002862D12268136843F4007313603D
:1045E00023681A69636A1A70626A531C6362238DB6
:1045F000013B2385638D013B9BB2638523681B6967
:104600005370636A01336362238D013B2385638D9D
:10461000013B9BB26385B0E72A460E992046FFF71F
:10462000FBFC00283CD123681A69636A1A70626A2D
:10463000531C6362238D013B2385638D013B9BB239
:1046400063852368596911F0040F96D01B69537074
:10465000636A01336362238D013B2385638D013BD4
:104660009BB2638589E7202384F83D30002384F8DA
:104670003E3084F83C30BCE60226BAE60200100068
:104680000000FFFF040001000226B2E60126B0E6AA
:104690000126AEE60126ACE60126AAE60126A8E63A
:1046A0000126A6E690F83D007047006C70470000B8
:1046B000002800F09E8070B50446504B1B6803F044
:1046C0000F038B4209D2CBB24C4A1370136803F02C
:1046D0000F038B4201D0012070BD236813F0020F3D
:1046E00017D013F0040F04D0454A936843F4E05305
:1046F0009360236813F0080F04D0414A936843F491
:10470000604393603E4A936823F0F003A06803433C
:1047100093600D46236813F0010F32D06368012BBC
:1047200021D09A1E012A25D9354A126812F0020FAB
:1047300061D033498A6822F0030213438B60FFF78C
:1047400049F806462E4B9B6803F00C036268B3EBF6
:10475000820F16D0FFF73EF8801B41F28833984253
:10476000F0D90320B8E7264A126812F4003FE0D1DE
:104770000120B1E7224A126812F0007FD9D101204E
:10478000AAE71E4B1B6803F00F03AB4209D9EAB23C
:104790001A4B1A701B6803F00F03AB4201D00120C3
:1047A0009AE7236813F0040F06D0154A936823F4A0
:1047B000E053E1680B439360236813F0080F07D0C0
:1047C0000F4A936823F46043216943EAC10393606D
:1047D00000F044F80A4B9B68C3F30313094AD35C07
:1047E000D840094B1860094B1868FEF7A9FF002054
:1047F00072E70120704701206EE700BF003C0240D5
:1048000000380240B489000800000020C8000020E1
:10481000014B1868704700BF0000002008B5FFF783
:10482000F7FF044B9B68C3F38223034AD35CD84051
:1048300008BD00BF00380240C489000808B5FFF772
:10484000E7FF044B9B68C3F34233034AD35CD84071
:1048500008BD00BF00380240C48900082DE9F04BB4
:10486000444B9B6803F00C03082B06D00C2B42D062
:10487000042B7CD04048BDE8F08B3E4B5A6802F0D8
:104880003F025B6813F4800F12D03A4B5968C1F3B2
:10489000881100233948A1FB0001FBF775FE354B59
:1048A0005B68C3F3014301335B00B0FBF3F0E2E765
:1048B000304B5B68C3F388131E4600275C0100255C
:1048C000E41A65EB0705A90141EA9461A001001B08
:1048D00061EB0501CB0043EA5073C400A01943EB20
:1048E00007018B0243EA90538402204619460023B5
:1048F000FBF74AFED3E71F4B5A6802F03F025B68A2
:1049000013F4800F10D01B4B5968C1F3881100239A
:104910001A48A1FB0001FBF737FE164B5B68C3F397
:104920000273B0FBF3F0A6E7124B5B68C3F3881386
:104930001E4600275C010025E41A65EB0705A90166
:1049400041EA9461A001001B61EB0501CB0043EA41
:104950005073C400A01943EB07018B0243EA905344
:104960008402204619460023FBF70EFED5E70348D4
:1049700081E700BF003802400024F40040787D0148
:1049800070B582B00446036813F0010F41D0A64B06
:104990009B6803F00C03042B32D0A34B9B6803F0FD
:1049A0000C03082B27D0A04B9B6803F00C030C2BA7
:1049B00059D06368B3F5803F5BD0B3F5A02F5ED0CC
:1049C000994B1A6822F480321A601A6822F4802205
:1049D0001A606368002B5CD0FEF7FCFE0546924B24
:1049E0001B6813F4003F14D1FEF7F4FE401B64284B
:1049F000F5D903209DE18C4B5B6813F4800FD2D076
:104A0000894B1B6813F4003F03D06368002B00F050
:104A10008D81236813F0020F67D0834B9B6813F0DE
:104A20000C0F4AD0804B9B6803F00C03082B3FD03F
:104A30007D4B9B6803F00C030C2B48D0E368002BE4
:104A400074D07A4B01221A60FEF7C4FE0546764BFD
:104A50001B6813F0020F60D1FEF7BCFE401B02285A
:104A6000F5D9032065E1704B5B6813F4800FA0D08B
:104A7000C6E76D4A136843F480331360A9E76A4BB5
:104A80001A6842F480221A601A6842F480321A606E
:104A90009FE7FEF79FFE0546634B1B6813F4003F3C
:104AA000B7D0FEF797FE401B6428F5D9032040E1FC
:104AB0005D4B5B6813F4800FBAD15B4B1B6813F03E
:104AC000020F0AD0E368012B07D0012031E1564BD9
:104AD0005B6813F4800FB1D1EFE7534A136823F0FA
:104AE000F803216943EAC1031360236813F0080F38
:104AF00040D0636963B34E4B01221A60FEF76AFE31
:104B00000546494B5B6F13F0020F33D1FEF762FE8F
:104B1000401B0228F5D903200BE1434A136823F018
:104B2000F803216943EAC1031360DEE73F4B00222B
:104B30001A60FEF74FFE05463B4B1B6813F0020F51
:104B4000D3D0FEF747FE401B0228F5D90320F0E042
:104B5000374B00221A60FEF73DFE0546324B5B6F75
:104B600013F0020F06D0FEF735FE401B0228F5D9E0
:104B70000320DEE0236813F0040F79D02A4B1B6C6E
:104B800013F0805F33D100230193274B1A6C42F05E
:104B900080521A641B6C03F080530193019B012522
:104BA000244B1B6813F4807F23D0A368012B34D0DF
:104BB000052B41D01C4B1A6F22F001021A671A6FA5
:104BC00022F004021A67A368002B3FD0FEF702FE12
:104BD0000646154B1B6F13F0020F48D1FEF7FAFD86
:104BE000801B41F288339842F3D90320A1E00025CD
:104BF000D6E7104A136843F480731360FEF7EAFDAA
:104C000006460C4B1B6813F4807FCED1FEF7E2FD05
:104C1000801B0228F5D903208BE0034A136F43F071
:104C200001031367CFE700BF00380240000047428E
:104C3000800E474200700040404B1A6F42F0040261
:104C40001A671A6F42F001021A67BCE7FEF7C2FD4D
:104C500006463A4B1B6F13F0020F08D0FEF7BAFD61
:104C6000801B41F288339842F3D9032061E0E5B913
:104C7000A369002B5CD0314A926802F00C02082A2A
:104C800059D0022B17D02E4B00221A60FEF7A2FD3E
:104C900004462A4B1B6813F0007F45D0FEF79AFDAF
:104CA000001B0228F5D9032043E0244A136C23F0AB
:104CB00080531364DCE7224B00221A60FEF78AFD62
:104CC00005461E4B1B6813F0007F06D0FEF782FDE1
:104CD000401B0228F5D903202BE0E369226A134325
:104CE000626A43EA8213A26A5208013A43EA024323
:104CF000E26A43EA0263226B43EA02730F4A53609B
:104D00000F4B01221A60FEF765FD04460B4B1B6832
:104D100013F0007F06D1FEF75DFD001B0228F5D9D8
:104D2000032006E0002004E0002002E0012000E073
:104D3000002002B070BD0120FBE700BF0038024038
:104D4000600047420268D36843F00103D360026801
:104D5000936803F00703062B03D0136843F00103A5
:104D6000136000207047704770477047704710B558
:104D7000044603681A6912F0020F11D0DA6812F0C3
:104D8000020F0DD06FF002021A610123037703684E
:104D90009B6913F0030F70D0FFF7E6FF0023237722
:104DA00023681A6912F0040F12D0DA6812F0040FA7
:104DB0000ED06FF004021A610223237723689B69E7
:104DC00013F4407F5FD02046FFF7CEFF0023237708
:104DD00023681A6912F0080F12D0DA6812F0080F6F
:104DE0000ED06FF008021A61042323772368DB6971
:104DF00013F0030F4ED02046FFF7B6FF00232377B2
:104E000023681A6912F0100F12D0DA6812F0100F2E
:104E10000ED06FF010021A61082323772368DB6934
:104E200013F4407F3DD02046FFF79EFF00232377F9
:104E300023681A6912F0010F03D0DA6812F0010F2B
:104E400036D123681A6912F0800F03D0DA6812F0A5
:104E5000800F34D123681A6912F0400F03D0DA684A
:104E600012F0400F32D123681A6912F0200F03D0DC
:104E7000DA6812F0200F30D110BDFFF774FF204622
:104E8000FFF773FF8AE72046FFF76DFF2046FFF725
:104E90006CFF9BE72046FFF766FF2046FFF765FFA4
:104EA000ACE72046FFF75FFF2046FFF75EFFBDE758
:104EB0006FF001021A612046FCF758FAC1E76FF063
:104EC00080021A61204600F0D2F8C3E76FF040027A
:104ED0001A612046FFF74AFFC5E76FF020021A610A
:104EE000204600F0C3F8C7E70368304A904212D06A
:104EF000B0F1804F0FD0A2F57C4290420BD002F56A
:104F00008062904207D002F58062904203D002F5A1
:104F10007842904203D123F070034A681343234A36
:104F200090422AD0B0F1804F27D0A2F57C42904227
:104F300023D002F5806290421FD002F58062904239
:104F40001BD002F57842904217D002F57052904281
:104F500013D002F5806290420FD002F58062904239
:104F60000BD0A2F59832904207D002F580629042B1
:104F700003D002F58062904203D123F44073CA68E3
:104F8000134323F080034A69134303608B68C362B1
:104F90000B688362054B984203D003F58063984207
:104FA00001D10B6903630123436170470000014095
:104FB000A8B110B5044690F83D305BB1022384F8E7
:104FC0003D30211D2068FFF78FFF012384F83D301D
:104FD000002010BD80F83C30FCF794FAEEE7012089
:104FE0007047000090F83C30012B3BD030B40123D7
:104FF00080F83C30022380F83D3003685C689D688F
:1050000024F070040A6822435A600368164A9342E7
:105010001AD0B3F1804F17D0A2F57C42934213D03F
:1050200002F5806293420FD002F5806293420BD06A
:1050300002F57842934207D002F57052934203D0B2
:10504000A2F59432934204D125F080054A681543B5
:105050009D60012380F83D30002380F83C301846E5
:1050600030BC704702207047000001407047704715
:105070002DE9F04B04460268136923F44053C168DC
:105080000B43136183680269134342691343C26986
:105090001A430168CB6823F4164323F00C0313432F
:1050A000CB600268536923F4407381690B435361F9
:1050B000C369B3F5004F3BD00368714A934200F0D7
:1050C000AB8002F58062934200F0A680FFF7A6FB5A
:1050D0004FF00009061849EB090716EB000B47EBE8
:1050E000090C4FEACC0343EA5B734FEACB029346C9
:1050F0009C4663689A009B0F10EB0B0049EB0C0178
:10510000FBF742FA5F4DA5FB00325109642202FB16
:10511000110213013233A5FB03235B0903F0F002F4
:1051200002EB011203F00F03216813448B60A4E02B
:105130000368534A934239D002F58062934235D0D6
:10514000FFF76CFB83464FF0000C06184CEB0C0786
:1051500016EB000847EB0C094FEAC90343EA587302
:105160004FEAC8029046994662680021921841EBC6
:1051700001031BEB08004CEB0901FBF705FA414D5D
:10518000A5FB00325109642202FB1102D300323325
:10519000A5FB03235B095A0002F4F87202EB01122B
:1051A00003F00703216813448B6066E0FFF746FBBA
:1051B00080464FF00009061849EB090716EB000B73
:1051C00047EB090C4FEACC0343EA5B734FEACB028F
:1051D00093469C4662680021921841EB010318EB4C
:1051E0000B0049EB0C01FBF7CFF9264DA5FB003274
:1051F0005109642202FB1102D3003233A5FB0323C1
:105200005B095A0002F4F87202EB011203F0070383
:10521000216813448B6030E0FFF710FB4FF000096A
:10522000061849EB090716EB000B47EB090C4FEA90
:10523000CC0343EA5B734FEACB0293469C46636818
:105240009A009B0F10EB0B0049EB0C01FBF79CF94C
:105250000C4DA5FB00325109642202FB110213011F
:105260003233A5FB03235B0903F0F00202EB0112CA
:1052700003F00F03216813448B60BDE8F08B00BF7F
:10528000001001401F85EB512DE9F04105460F4606
:1052900016469846069C2B681B6837EA03030CBF2A
:1052A00001230023B3421DD1B4F1FF3FF3D02CB151
:1052B000FEF790FAA0EB0800A042ECD92A68D36868
:1052C00023F4D073D3602A68536923F00103536138
:1052D000202385F8393085F83A30002385F83830B6
:1052E000032000E00020BDE8F08158B310B504466B
:1052F00090F839300BB3242384F839302268D3680E
:1053000023F40053D3602046FFF7B2FE22681369EE
:1053100023F4904313612268536923F02A035361F5
:105320002268D36843F40053D3600020E063202355
:1053300084F8393084F83A3010BD80F83830FCF702
:1053400001F9D8E7012070472DE9F04383B01E46EC
:1053500090F83930DBB2202B56D104460D469046EA
:10536000002956D0002A56D090F83830012B54D05E
:10537000012380F838304FF00009C0F83C90212319
:1053800080F83930FEF726FA0746A4F82480A4F8FE
:10539000268084F8389010E000963B460022802159
:1053A0002046FFF771FF002839D12B882268C3F30C
:1053B000080353602369C3B90235E38C9BB2B3B1D0
:1053C000E38C013B9BB2E384A368B3F5805FE3D039
:1053D00000963B46002280212046FFF755FF00BB88
:1053E0002A7823685A600135E7E70135E5E700963A
:1053F0003B46002240212046FFF746FF034690B976
:10540000202284F8392000E00223184603B0BDE8CA
:10541000F0830123F9E70123F7E70223F5E70323EC
:10542000F3E70323F1E70323EFE7842801D00330F8
:1054300070470020704708B500F098FC002008BDB8
:105440002DE9F04387B004460F464569A5B186694A
:1054500096B1D0F80480D0F80090B0F90800FFF7BA
:10546000E4FF22690296019500903B46494640467A
:1054700000F00EFC059013E065682668D4F81080F3
:10548000B4F90800FFF7D1FF05AB019300903B464C
:105490001FFA88F23146284600F034FC012803D177
:1054A000059807B0BDE8F0830020FAE708B5034689
:1054B00000B90123184600F093FD002008BD08B58F
:1054C000416819B1012000F064FA08BD012000F024
:1054D00055FAFAE700F1080343604FF0FF328260AB
:1054E000C3600361002303607047002303617047BA
:1054F00043684B609A688A609A6851609960086155
:10550000036801330360704730B40D68B5F1FF3FA5
:1055100002D000F1080202E0026904E01A46536872
:105520001C68AC42FAD953684B6099608A6051603C
:10553000086103680133036030BC70470369426847
:10554000816891608268416851605A68824206D0E1
:10555000002202611A68013A1A601868704782686E
:105560005A60F5E710B5044600F024FFA26BE36B28
:105570009A4204D0002400F03FFF204610BD0124D1
:10558000F9E770B504461646856B026C5AB9036894
:105590001BB100200135A56370BD806800F04CFE92
:1055A0000023A360F6E76EB9406801F07DF9226C34
:1055B000636813446360A268934219D323686360ED
:1055C0000020E7E7C06801F06FF9226C5242E368FF
:1055D0001344E36021688B4202D2A3681A44E2605C
:1055E000022E01D00020D5E725B1013D0020D1E7F2
:1055F0000020CFE70020CDE738B5054600F0DAFE01
:1056000095F8454064B203E000F0FEFD013C64B251
:10561000002C08DD6B6A33B105F1240000F068FD51
:105620000028F3D0F0E7FF2385F8453000F0E4FED2
:1056300000F0C0FE95F8444064B203E000F0E4FDE1
:10564000013C64B2002C08DD2B6933B105F1100078
:1056500000F04EFD0028F3D0F0E7FF2385F844303A
:1056600000F0CAFE38BD000038B540B94FF0500315
:1056700083F31188BFF36F8FBFF34F8FFEE70446AC
:105680000D4600F097FE2168E26B236C03FB0210CD
:10569000A0600020A0636160013A02FB0313E36095
:1056A000FF2384F8443084F84530A5B923691BB939
:1056B00000F0A2FE012038BD04F1100000F018FD3A
:1056C0000028F5D0084B4FF080521A60BFF34F8F7F
:1056D000BFF36F8FECE704F11000FFF7FBFE04F15E
:1056E0002400FFF7F7FEE3E704ED00E010B5029BAE
:1056F0000C4639B11A60D8631C6401211846FFF7C3
:10570000B3FF10BD1B60F6E740B94FF0500383F3C1
:105710001188BFF36F8FBFF34F8FFEE710B584B0D2
:10572000044653B192B189B94FF0500383F3118805
:10573000BFF36F8FBFF34F8FFEE74FF0500383F33C
:105740001188BFF36F8FBFF34F8FFEE74AB941B1A6
:105750004FF0500383F31188BFF36F8FBFF34F8F68
:10576000FEE7482003900398482808D04FF05003E4
:1057700083F31188BFF36F8FBFF34F8FFEE720468F
:105780001C46039B012384F8463000949DF8183092
:10579000FFF7ACFF204604B010BD40B94FF05003F6
:1057A00083F31188BFF36F8FBFF34F8FFEE7F0B520
:1057B00083B0064611B101FB00F000E0002017465F
:1057C0000C46483000F06CFF054650B1002380F8CD
:1057D000463000903B4600F1480221463046FFF734
:1057E00085FF284603B0F0BDF0B585B0019260B1E9
:1057F000044699B9026C8AB14FF0500383F31188C3
:10580000BFF36F8FBFF34F8FFEE74FF0500383F36B
:105810001188BFF36F8FBFF34F8FFEE7022B0BD1C1
:10582000E26B012A08D04FF0500383F31188BFF3D5
:105830006F8FBFF34F8FFEE71E460F4600F0ECFC64
:1058400050B9019B53B14FF0500383F31188BFF35C
:105850006F8FBFF34F8FFEE700253AE0002538E059
:10586000324639462046FFF78CFE636A4BB9A8B131
:105870003B4B4FF080521A60BFF34F8FBFF36F8FD7
:105880000CE004F1240000F033FC38B1344B4FF04D
:1058900080521A60BFF34F8FBFF36F8F00F0ACFDE3
:1058A000012005B0F0BD00F0A7FD0020F9E702A837
:1058B00000F060FC012519E0002384F8443021E069
:1058C000002384F8453023E02046FFF795FE00F0E2
:1058D0000FFB00F06FFDA26BE36B9A42C0D3022E68
:1058E000BED0019B002BDED0002DE0D000F084FD67
:1058F00000F06EFA00F05EFD94F844305BB2B3F154
:10590000FF3FD9D094F845305BB2B3F1FF3FD7D019
:1059100000F072FD01A902A800F036FCC8B92046CB
:10592000FFF720FE0028CFD0019904F1100000F00D
:10593000C5FB2046FFF760FE00F0DAFA0028C8D168
:10594000074B4FF080521A60BFF34F8FBFF36F8F3A
:10595000BFE72046FFF750FE00F0CAFA0020A0E79C
:1059600004ED00E048B108B5002181600160C1602C
:105970000B460A46FFF738FF08BD704710B50246D0
:1059800000210120FFF709FF0446FFF7EBFF204647
:1059900010BD10B582B000900B46002211460120C8
:1059A000FFF7B2FE0446FFF7DDFF204602B010BD50
:1059B000074B9B6A1B6833B1054B9A6AD268D26861
:1059C0005268DA627047024B4FF0FF32DA6270477A
:1059D000E00500202DE9F04780469946089D099F83
:1059E0000A9C266B02F18042013A06EB820626F001
:1059F000070689B30A4600230F2B07D8D05CE118AD
:105A000081F83400D15C09B10133F5E7002384F853
:105A10004330062D00D90625E56265644FF0000A83
:105A2000C4F848A0201DFFF760FD04F11800FFF73F
:105A30005CFD2461C5F10705A5616462C4F84CA052
:105A400084F850A04A464146304600F08BFC206066
:105A500007B13C60BDE8F087002384F83430D8E714
:105A600070B5002407E004EB84029300104818444A
:105A7000FFF730FD0134062CF5D90E4C04F1BC06BD
:105A80003046FFF727FD04F1D0052846FFF722FD39
:105A900004F11400FFF71EFD04F1E400FFF71AFD06
:105AA0002046FFF717FDA662C4F8F85070BD00BF8E
:105AB00010060020E005002038B5054600F07AFC0D
:105AC000264BD3F8FC200132C3F8FC20D3F8003178
:105AD00073B1224BD3F804318BB9204BD3F800318A
